{
  "contractName": "MyToken",
  "abi": [
    {
      "inputs": [],
      "stateMutability": "nonpayable",
      "type": "constructor"
    },
    {
      "anonymous": false,
      "inputs": [
        {
          "indexed": true,
          "internalType": "address",
          "name": "account",
          "type": "address"
        },
        {
          "indexed": true,
          "internalType": "address",
          "name": "operator",
          "type": "address"
        },
        {
          "indexed": false,
          "internalType": "bool",
          "name": "approved",
          "type": "bool"
        }
      ],
      "name": "ApprovalForAll",
      "type": "event"
    },
    {
      "anonymous": false,
      "inputs": [
        {
          "indexed": true,
          "internalType": "address",
          "name": "operator",
          "type": "address"
        },
        {
          "indexed": true,
          "internalType": "address",
          "name": "from",
          "type": "address"
        },
        {
          "indexed": true,
          "internalType": "address",
          "name": "to",
          "type": "address"
        },
        {
          "indexed": false,
          "internalType": "uint256[]",
          "name": "ids",
          "type": "uint256[]"
        },
        {
          "indexed": false,
          "internalType": "uint256[]",
          "name": "values",
          "type": "uint256[]"
        }
      ],
      "name": "TransferBatch",
      "type": "event"
    },
    {
      "anonymous": false,
      "inputs": [
        {
          "indexed": true,
          "internalType": "address",
          "name": "operator",
          "type": "address"
        },
        {
          "indexed": true,
          "internalType": "address",
          "name": "from",
          "type": "address"
        },
        {
          "indexed": true,
          "internalType": "address",
          "name": "to",
          "type": "address"
        },
        {
          "indexed": false,
          "internalType": "uint256",
          "name": "id",
          "type": "uint256"
        },
        {
          "indexed": false,
          "internalType": "uint256",
          "name": "value",
          "type": "uint256"
        }
      ],
      "name": "TransferSingle",
      "type": "event"
    },
    {
      "anonymous": false,
      "inputs": [
        {
          "indexed": false,
          "internalType": "string",
          "name": "value",
          "type": "string"
        },
        {
          "indexed": true,
          "internalType": "uint256",
          "name": "id",
          "type": "uint256"
        }
      ],
      "name": "URI",
      "type": "event"
    },
    {
      "inputs": [
        {
          "internalType": "address",
          "name": "account",
          "type": "address"
        },
        {
          "internalType": "uint256",
          "name": "id",
          "type": "uint256"
        }
      ],
      "name": "balanceOf",
      "outputs": [
        {
          "internalType": "uint256",
          "name": "",
          "type": "uint256"
        }
      ],
      "stateMutability": "view",
      "type": "function"
    },
    {
      "inputs": [
        {
          "internalType": "address[]",
          "name": "accounts",
          "type": "address[]"
        },
        {
          "internalType": "uint256[]",
          "name": "ids",
          "type": "uint256[]"
        }
      ],
      "name": "balanceOfBatch",
      "outputs": [
        {
          "internalType": "uint256[]",
          "name": "",
          "type": "uint256[]"
        }
      ],
      "stateMutability": "view",
      "type": "function"
    },
    {
      "inputs": [
        {
          "internalType": "address",
          "name": "account",
          "type": "address"
        },
        {
          "internalType": "address",
          "name": "operator",
          "type": "address"
        }
      ],
      "name": "isApprovedForAll",
      "outputs": [
        {
          "internalType": "bool",
          "name": "",
          "type": "bool"
        }
      ],
      "stateMutability": "view",
      "type": "function"
    },
    {
      "inputs": [
        {
          "internalType": "uint256",
          "name": "",
          "type": "uint256"
        }
      ],
      "name": "lookupmap",
      "outputs": [
        {
          "internalType": "string",
          "name": "",
          "type": "string"
        }
      ],
      "stateMutability": "view",
      "type": "function"
    },
    {
      "inputs": [
        {
          "internalType": "address",
          "name": "from",
          "type": "address"
        },
        {
          "internalType": "address",
          "name": "to",
          "type": "address"
        },
        {
          "internalType": "uint256[]",
          "name": "ids",
          "type": "uint256[]"
        },
        {
          "internalType": "uint256[]",
          "name": "amounts",
          "type": "uint256[]"
        },
        {
          "internalType": "bytes",
          "name": "data",
          "type": "bytes"
        }
      ],
      "name": "safeBatchTransferFrom",
      "outputs": [],
      "stateMutability": "nonpayable",
      "type": "function"
    },
    {
      "inputs": [
        {
          "internalType": "address",
          "name": "from",
          "type": "address"
        },
        {
          "internalType": "address",
          "name": "to",
          "type": "address"
        },
        {
          "internalType": "uint256",
          "name": "id",
          "type": "uint256"
        },
        {
          "internalType": "uint256",
          "name": "amount",
          "type": "uint256"
        },
        {
          "internalType": "bytes",
          "name": "data",
          "type": "bytes"
        }
      ],
      "name": "safeTransferFrom",
      "outputs": [],
      "stateMutability": "nonpayable",
      "type": "function"
    },
    {
      "inputs": [
        {
          "internalType": "address",
          "name": "operator",
          "type": "address"
        },
        {
          "internalType": "bool",
          "name": "approved",
          "type": "bool"
        }
      ],
      "name": "setApprovalForAll",
      "outputs": [],
      "stateMutability": "nonpayable",
      "type": "function"
    },
    {
      "inputs": [
        {
          "internalType": "bytes4",
          "name": "interfaceId",
          "type": "bytes4"
        }
      ],
      "name": "supportsInterface",
      "outputs": [
        {
          "internalType": "bool",
          "name": "",
          "type": "bool"
        }
      ],
      "stateMutability": "view",
      "type": "function"
    },
    {
      "inputs": [
        {
          "internalType": "uint256",
          "name": "",
          "type": "uint256"
        }
      ],
      "name": "uri",
      "outputs": [
        {
          "internalType": "string",
          "name": "",
          "type": "string"
        }
      ],
      "stateMutability": "view",
      "type": "function"
    },
    {
      "inputs": [
        {
          "internalType": "string",
          "name": "newuri",
          "type": "string"
        }
      ],
      "name": "setURI",
      "outputs": [],
      "stateMutability": "nonpayable",
      "type": "function"
    },
    {
      "inputs": [
        {
          "internalType": "address",
          "name": "recipient",
          "type": "address"
        },
        {
          "internalType": "string",
          "name": "tokenURI",
          "type": "string"
        },
        {
          "internalType": "uint256",
          "name": "amount",
          "type": "uint256"
        }
      ],
      "name": "mint",
      "outputs": [],
      "stateMutability": "nonpayable",
      "type": "function"
    }
  ],
  "bytecode": "0x60806040523480156200001157600080fd5b506040805160208101909152600081526200002c8162000033565b506200012e565b8051620000489060029060208401906200004c565b5050565b8280546200005a90620000f2565b90600052602060002090601f0160209004810192826200007e5760008555620000c9565b82601f106200009957805160ff1916838001178555620000c9565b82800160010185558215620000c9579182015b82811115620000c9578251825591602001919060010190620000ac565b50620000d7929150620000db565b5090565b5b80821115620000d75760008155600101620000dc565b600181811c908216806200010757607f821691505b6020821081036200012857634e487b7160e01b600052602260045260246000fd5b50919050565b61176f806200013e6000396000f3fe608060405234801561001057600080fd5b50600436106100a85760003560e01c80634e1273f4116100715780634e1273f41461013e578063a22cb4651461015e578063b28f6df614610171578063ba7aef4314610184578063e985e9c514610197578063f242432a146101d357600080fd5b8062fdd58e146100ad57806301ffc9a7146100d357806302fe5305146100f65780630e89341c1461010b5780632eb2c2d61461012b575b600080fd5b6100c06100bb366004610ee3565b6101e6565b6040519081526020015b60405180910390f35b6100e66100e1366004610f23565b61027d565b60405190151581526020016100ca565b610109610104366004610ffe565b6102cf565b005b61011e61011936600461103b565b6102db565b6040516100ca91906110a1565b610109610139366004611149565b61036f565b61015161014c3660046111f3565b610406565b6040516100ca91906112f9565b61010961016c36600461130c565b610530565b61011e61017f36600461103b565b61053f565b610109610192366004611348565b6105d9565b6100e66101a536600461139f565b6001600160a01b03918216600090815260016020908152604080832093909416825291909152205460ff1690565b6101096101e13660046113d2565b610638565b60006001600160a01b0383166102575760405162461bcd60e51b815260206004820152602b60248201527f455243313135353a2062616c616e636520717565727920666f7220746865207a60448201526a65726f206164647265737360a81b60648201526084015b60405180910390fd5b506000908152602081815260408083206001600160a01b03949094168352929052205490565b60006001600160e01b03198216636cdb3d1360e11b14806102ae57506001600160e01b031982166303a24d0760e21b145b806102c957506301ffc9a760e01b6001600160e01b03198316145b92915050565b6102d8816106bf565b50565b6060600280546102ea90611437565b80601f016020809104026020016040519081016040528092919081815260200182805461031690611437565b80156103635780601f1061033857610100808354040283529160200191610363565b820191906000526020600020905b81548152906001019060200180831161034657829003601f168201915b50505050509050919050565b6001600160a01b03851633148061038b575061038b85336101a5565b6103f25760405162461bcd60e51b815260206004820152603260248201527f455243313135353a207472616e736665722063616c6c6572206973206e6f74206044820152711bdddb995c881b9bdc88185c1c1c9bdd995960721b606482015260840161024e565b6103ff85858585856106d2565b5050505050565b6060815183511461046b5760405162461bcd60e51b815260206004820152602960248201527f455243313135353a206163636f756e747320616e6420696473206c656e677468604482015268040dad2e6dac2e8c6d60bb1b606482015260840161024e565b6000835167ffffffffffffffff81111561048757610487610f47565b6040519080825280602002602001820160405280156104b0578160200160208202803683370190505b50905060005b8451811015610528576104fb8582815181106104d4576104d4611471565b60200260200101518583815181106104ee576104ee611471565b60200260200101516101e6565b82828151811061050d5761050d611471565b60209081029190910101526105218161149d565b90506104b6565b509392505050565b61053b3383836108af565b5050565b6004602052600090815260409020805461055890611437565b80601f016020809104026020016040519081016040528092919081815260200182805461058490611437565b80156105d15780601f106105a6576101008083540402835291602001916105d1565b820191906000526020600020905b8154815290600101906020018083116105b457829003601f168201915b505050505081565b6105e7600380546001019055565b60006105f260035490565b60008181526004602090815260409091208551929350610616929091860190610e2e565b506106328482846040518060200160405280600081525061098f565b50505050565b6001600160a01b038516331480610654575061065485336101a5565b6106b25760405162461bcd60e51b815260206004820152602960248201527f455243313135353a2063616c6c6572206973206e6f74206f776e6572206e6f7260448201526808185c1c1c9bdd995960ba1b606482015260840161024e565b6103ff8585858585610aa3565b805161053b906002906020840190610e2e565b81518351146107345760405162461bcd60e51b815260206004820152602860248201527f455243313135353a2069647320616e6420616d6f756e7473206c656e677468206044820152670dad2e6dac2e8c6d60c31b606482015260840161024e565b6001600160a01b03841661075a5760405162461bcd60e51b815260040161024e906114b6565b3360005b845181101561084157600085828151811061077b5761077b611471565b60200260200101519050600085838151811061079957610799611471565b602090810291909101810151600084815280835260408082206001600160a01b038e1683529093529190912054909150818110156107e95760405162461bcd60e51b815260040161024e906114fb565b6000838152602081815260408083206001600160a01b038e8116855292528083208585039055908b16825281208054849290610826908490611545565b925050819055505050508061083a9061149d565b905061075e565b50846001600160a01b0316866001600160a01b0316826001600160a01b03167f4a39dc06d4c0dbc64b70af90fd698a233a518aa5d07e595d983b8c0526c8f7fb878760405161089192919061155d565b60405180910390a46108a7818787878787610bcd565b505050505050565b816001600160a01b0316836001600160a01b0316036109225760405162461bcd60e51b815260206004820152602960248201527f455243313135353a2073657474696e6720617070726f76616c20737461747573604482015268103337b91039b2b63360b91b606482015260840161024e565b6001600160a01b03838116600081815260016020908152604080832094871680845294825291829020805460ff191686151590811790915591519182527f17307eab39ab6107e8899845ad3d59bd9653f200f220920489ca2b5937696c31910160405180910390a3505050565b6001600160a01b0384166109ef5760405162461bcd60e51b815260206004820152602160248201527f455243313135353a206d696e7420746f20746865207a65726f206164647265736044820152607360f81b606482015260840161024e565b3360006109fb85610d28565b90506000610a0885610d28565b90506000868152602081815260408083206001600160a01b038b16845290915281208054879290610a3a908490611545565b909155505060408051878152602081018790526001600160a01b03808a1692600092918716917fc3d58168c5ae7397731d063d5bbf3d657854427343f4c083240f7aacaa2d0f62910160405180910390a4610a9a83600089898989610d73565b50505050505050565b6001600160a01b038416610ac95760405162461bcd60e51b815260040161024e906114b6565b336000610ad585610d28565b90506000610ae285610d28565b90506000868152602081815260408083206001600160a01b038c16845290915290205485811015610b255760405162461bcd60e51b815260040161024e906114fb565b6000878152602081815260408083206001600160a01b038d8116855292528083208985039055908a16825281208054889290610b62908490611545565b909155505060408051888152602081018890526001600160a01b03808b16928c821692918816917fc3d58168c5ae7397731d063d5bbf3d657854427343f4c083240f7aacaa2d0f62910160405180910390a4610bc2848a8a8a8a8a610d73565b505050505050505050565b6001600160a01b0384163b156108a75760405163bc197c8160e01b81526001600160a01b0385169063bc197c8190610c11908990899088908890889060040161158b565b6020604051808303816000875af1925050508015610c4c575060408051601f3d908101601f19168201909252610c49918101906115e9565b60015b610cf857610c58611606565b806308c379a003610c915750610c6c611622565b80610c775750610c93565b8060405162461bcd60e51b815260040161024e91906110a1565b505b60405162461bcd60e51b815260206004820152603460248201527f455243313135353a207472616e7366657220746f206e6f6e20455243313135356044820152732932b1b2b4bb32b91034b6b83632b6b2b73a32b960611b606482015260840161024e565b6001600160e01b0319811663bc197c8160e01b14610a9a5760405162461bcd60e51b815260040161024e906116ac565b60408051600180825281830190925260609160009190602080830190803683370190505090508281600081518110610d6257610d62611471565b602090810291909101015292915050565b6001600160a01b0384163b156108a75760405163f23a6e6160e01b81526001600160a01b0385169063f23a6e6190610db790899089908890889088906004016116f4565b6020604051808303816000875af1925050508015610df2575060408051601f3d908101601f19168201909252610def918101906115e9565b60015b610dfe57610c58611606565b6001600160e01b0319811663f23a6e6160e01b14610a9a5760405162461bcd60e51b815260040161024e906116ac565b828054610e3a90611437565b90600052602060002090601f016020900481019282610e5c5760008555610ea2565b82601f10610e7557805160ff1916838001178555610ea2565b82800160010185558215610ea2579182015b82811115610ea2578251825591602001919060010190610e87565b50610eae929150610eb2565b5090565b5b80821115610eae5760008155600101610eb3565b80356001600160a01b0381168114610ede57600080fd5b919050565b60008060408385031215610ef657600080fd5b610eff83610ec7565b946020939093013593505050565b6001600160e01b0319811681146102d857600080fd5b600060208284031215610f3557600080fd5b8135610f4081610f0d565b9392505050565b634e487b7160e01b600052604160045260246000fd5b601f8201601f1916810167ffffffffffffffff81118282101715610f8357610f83610f47565b6040525050565b600082601f830112610f9b57600080fd5b813567ffffffffffffffff811115610fb557610fb5610f47565b604051610fcc601f8301601f191660200182610f5d565b818152846020838601011115610fe157600080fd5b816020850160208301376000918101602001919091529392505050565b60006020828403121561101057600080fd5b813567ffffffffffffffff81111561102757600080fd5b61103384828501610f8a565b949350505050565b60006020828403121561104d57600080fd5b5035919050565b6000815180845260005b8181101561107a5760208185018101518683018201520161105e565b8181111561108c576000602083870101525b50601f01601f19169290920160200192915050565b602081526000610f406020830184611054565b600067ffffffffffffffff8211156110ce576110ce610f47565b5060051b60200190565b600082601f8301126110e957600080fd5b813560206110f6826110b4565b6040516111038282610f5d565b83815260059390931b850182019282810191508684111561112357600080fd5b8286015b8481101561113e5780358352918301918301611127565b509695505050505050565b600080600080600060a0868803121561116157600080fd5b61116a86610ec7565b945061117860208701610ec7565b9350604086013567ffffffffffffffff8082111561119557600080fd5b6111a189838a016110d8565b945060608801359150808211156111b757600080fd5b6111c389838a016110d8565b935060808801359150808211156111d957600080fd5b506111e688828901610f8a565b9150509295509295909350565b6000806040838503121561120657600080fd5b823567ffffffffffffffff8082111561121e57600080fd5b818501915085601f83011261123257600080fd5b8135602061123f826110b4565b60405161124c8282610f5d565b83815260059390931b850182019282810191508984111561126c57600080fd5b948201945b838610156112915761128286610ec7565b82529482019490820190611271565b965050860135925050808211156112a757600080fd5b506112b4858286016110d8565b9150509250929050565b600081518084526020808501945080840160005b838110156112ee578151875295820195908201906001016112d2565b509495945050505050565b602081526000610f4060208301846112be565b6000806040838503121561131f57600080fd5b61132883610ec7565b91506020830135801515811461133d57600080fd5b809150509250929050565b60008060006060848603121561135d57600080fd5b61136684610ec7565b9250602084013567ffffffffffffffff81111561138257600080fd5b61138e86828701610f8a565b925050604084013590509250925092565b600080604083850312156113b257600080fd5b6113bb83610ec7565b91506113c960208401610ec7565b90509250929050565b600080600080600060a086880312156113ea57600080fd5b6113f386610ec7565b945061140160208701610ec7565b93506040860135925060608601359150608086013567ffffffffffffffff81111561142b57600080fd5b6111e688828901610f8a565b600181811c9082168061144b57607f821691505b60208210810361146b57634e487b7160e01b600052602260045260246000fd5b50919050565b634e487b7160e01b600052603260045260246000fd5b634e487b7160e01b600052601160045260246000fd5b6000600182016114af576114af611487565b5060010190565b60208082526025908201527f455243313135353a207472616e7366657220746f20746865207a65726f206164604082015264647265737360d81b606082015260800190565b6020808252602a908201527f455243313135353a20696e73756666696369656e742062616c616e636520666f60408201526939103a3930b739b332b960b11b606082015260800190565b6000821982111561155857611558611487565b500190565b60408152600061157060408301856112be565b828103602084015261158281856112be565b95945050505050565b6001600160a01b0386811682528516602082015260a0604082018190526000906115b7908301866112be565b82810360608401526115c981866112be565b905082810360808401526115dd8185611054565b98975050505050505050565b6000602082840312156115fb57600080fd5b8151610f4081610f0d565b600060033d111561161f5760046000803e5060005160e01c5b90565b600060443d10156116305790565b6040516003193d81016004833e81513d67ffffffffffffffff816024840111818411171561166057505050505090565b82850191508151818111156116785750505050505090565b843d87010160208285010111156116925750505050505090565b6116a160208286010187610f5d565b509095945050505050565b60208082526028908201527f455243313135353a204552433131353552656365697665722072656a656374656040820152676420746f6b656e7360c01b606082015260800190565b6001600160a01b03868116825285166020820152604081018490526060810183905260a06080820181905260009061172e90830184611054565b97965050505050505056fea26469706673582212207fe669e5843e8b14553d4bc424d0aff6dbe3adc02496d996fc1a6f8c0eeddbd664736f6c634300080e0033",
  "immutableReferences": {},
  "source": "// SPDX-License-Identifier: MIT\n\npragma solidity ^0.8.0;\n\nimport \"@openzeppelin/contracts/utils/Counters.sol\";\nimport \"@openzeppelin/contracts/token/ERC721/extensions/ERC721URIStorage.sol\";\nimport \"@openzeppelin/contracts/security/ReentrancyGuard.sol\";\nimport \"@openzeppelin/contracts/token/ERC721/ERC721.sol\";\nimport \"@openzeppelin/contracts/token/ERC1155/ERC1155.sol\";\n\ncontract PolyMintERC721 is ERC721URIStorage {\n    using Counters for Counters.Counter;\n    Counters.Counter private _tokenIds;\n\n    constructor(string memory name_, string memory symbol_)\n        ERC721(name_, symbol_)\n    {}\n\n    function mint(address recipient, string memory tokenURI)\n        public\n        returns (uint256)\n    {\n        _tokenIds.increment();\n\n        uint256 newItemId = _tokenIds.current();\n\n        _mint(recipient, newItemId);\n        _setTokenURI(newItemId, tokenURI);\n\n        return newItemId;\n    }\n}\n\ncontract MyToken is ERC1155 {\n    using Counters for Counters.Counter;\n    Counters.Counter private _tokenIds;\n\n    mapping(uint256 => string) public lookupmap;\n\n    constructor() ERC1155(\"\") {}\n\n    function setURI(string memory newuri) public {\n        _setURI(newuri);\n    }\n\n    function mint(\n        address recipient,\n        string memory tokenURI,\n        uint256 amount\n    ) public {\n        _tokenIds.increment();\n\n        uint256 newItemId = _tokenIds.current();\n\n        lookupmap[newItemId] = tokenURI;\n        _mint(recipient, newItemId, amount, \"\");\n    }\n}\n\ncontract PolyMintFactory {\n    mapping(address => PolyMint) public contracts;\n    address[] public addresses;\n    struct PolyMint {\n        address contractAddress;\n        uint256 contractType;\n        string name;\n        string symbol;\n    }\n\n    function mint(\n        string memory name,\n        string memory symbol,\n        string memory tokenURI,\n        uint256 contractType\n    ) public {\n        if (contractType == 721) {\n            _mint721(name, symbol, tokenURI);\n        } else if (contractType == 1155) {\n            _mint1155(name, symbol, tokenURI);\n        }\n    }\n\n    function mint(\n        address contractAddress,\n        string memory tokenURI,\n        uint256 contractType\n    ) public {\n        if (contractType == 721) {\n            _mint721(contractAddress, tokenURI);\n        } else if (contractType == 1155) {\n            _mint1155(contractAddress, tokenURI);\n        }\n    }\n\n    function _mint721(\n        string memory name,\n        string memory symbol,\n        string memory tokenURI\n    ) internal {\n        PolyMintERC721 contract_ = new PolyMintERC721(name, symbol);\n        address erc721Address = address(contract_);\n        contract_.mint(msg.sender, tokenURI);\n        contracts[erc721Address] = PolyMint(erc721Address, 721, name, symbol);\n        addresses.push(erc721Address);\n    }\n\n    function _mint721(address contractAddress, string memory tokenURI)\n        internal\n    {\n        PolyMintERC721 erc721 = PolyMintERC721(contractAddress);\n        erc721.mint(msg.sender, tokenURI);\n    }\n\n    function _mint1155(\n        string memory name,\n        string memory symbol,\n        string memory tokenURI\n    ) internal {\n        PolyMintERC721 contract_ = new PolyMintERC721(name, symbol);\n        address erc721Address = address(contract_);\n        contract_.mint(msg.sender, tokenURI);\n        contracts[erc721Address] = PolyMint(erc721Address, 721, name, symbol);\n        addresses.push(erc721Address);\n    }\n\n    function _mint1155(address contractAddress, string memory tokenURI)\n        internal\n    {\n        PolyMintERC721 erc721 = PolyMintERC721(contractAddress);\n        erc721.mint(msg.sender, tokenURI);\n    }\n\n    function getContract(address addr)\n        public\n        view\n        returns (\n            string memory,\n            string memory,\n            uint256\n        )\n    {\n        return (\n            contracts[addr].name,\n            contracts[addr].symbol,\n            contracts[addr].contractType\n        );\n    }\n}\n",
  "sourcePath": "/Users/maadhav/Documents/web3Projects/poly-mint/contracts/PolyMintFactory.sol",
  "compiler": {
    "name": "solc",
    "version": "0.8.14+commit.80d49f37.Emscripten.clang"
  },
  "schemaVersion": "3.4.2",
  "updatedAt": "2022-06-15T11:59:59.444Z",
  "devdoc": {
    "kind": "dev",
    "methods": {
      "balanceOf(address,uint256)": {
        "details": "See {IERC1155-balanceOf}. Requirements: - `account` cannot be the zero address."
      },
      "balanceOfBatch(address[],uint256[])": {
        "details": "See {IERC1155-balanceOfBatch}. Requirements: - `accounts` and `ids` must have the same length."
      },
      "isApprovedForAll(address,address)": {
        "details": "See {IERC1155-isApprovedForAll}."
      },
      "safeBatchTransferFrom(address,address,uint256[],uint256[],bytes)": {
        "details": "See {IERC1155-safeBatchTransferFrom}."
      },
      "safeTransferFrom(address,address,uint256,uint256,bytes)": {
        "details": "See {IERC1155-safeTransferFrom}."
      },
      "setApprovalForAll(address,bool)": {
        "details": "See {IERC1155-setApprovalForAll}."
      },
      "supportsInterface(bytes4)": {
        "details": "See {IERC165-supportsInterface}."
      },
      "uri(uint256)": {
        "details": "See {IERC1155MetadataURI-uri}. This implementation returns the same URI for *all* token types. It relies on the token type ID substitution mechanism https://eips.ethereum.org/EIPS/eip-1155#metadata[defined in the EIP]. Clients calling this function must replace the `\\{id\\}` substring with the actual token type ID."
      }
    },
    "version": 1
  },
  "userdoc": {
    "kind": "user",
    "methods": {},
    "version": 1
  }
}