{
  "contractName": "PolyMintFactory",
  "abi": [
    {
      "inputs": [
        {
          "internalType": "uint256",
          "name": "",
          "type": "uint256"
        }
      ],
      "name": "addresses",
      "outputs": [
        {
          "internalType": "address",
          "name": "",
          "type": "address"
        }
      ],
      "stateMutability": "view",
      "type": "function",
      "constant": true
    },
    {
      "inputs": [
        {
          "internalType": "address",
          "name": "",
          "type": "address"
        }
      ],
      "name": "contracts",
      "outputs": [
        {
          "internalType": "address",
          "name": "contractAddress",
          "type": "address"
        },
        {
          "internalType": "uint256",
          "name": "contractType",
          "type": "uint256"
        },
        {
          "internalType": "string",
          "name": "name",
          "type": "string"
        },
        {
          "internalType": "string",
          "name": "symbol",
          "type": "string"
        }
      ],
      "stateMutability": "view",
      "type": "function",
      "constant": true
    },
    {
      "inputs": [
        {
          "internalType": "string",
          "name": "name",
          "type": "string"
        },
        {
          "internalType": "string",
          "name": "symbol",
          "type": "string"
        },
        {
          "internalType": "string",
          "name": "tokenURI",
          "type": "string"
        },
        {
          "internalType": "uint256",
          "name": "amount",
          "type": "uint256"
        }
      ],
      "name": "mint",
      "outputs": [],
      "stateMutability": "nonpayable",
      "type": "function"
    },
    {
      "inputs": [
        {
          "internalType": "address",
          "name": "contractAddress",
          "type": "address"
        },
        {
          "internalType": "string",
          "name": "tokenURI",
          "type": "string"
        },
        {
          "internalType": "uint256",
          "name": "amount",
          "type": "uint256"
        }
      ],
      "name": "mint",
      "outputs": [],
      "stateMutability": "nonpayable",
      "type": "function"
    },
    {
      "inputs": [
        {
          "internalType": "address",
          "name": "contractAddress",
          "type": "address"
        },
        {
          "internalType": "string",
          "name": "tokenURI",
          "type": "string"
        }
      ],
      "name": "mint",
      "outputs": [],
      "stateMutability": "nonpayable",
      "type": "function"
    },
    {
      "inputs": [
        {
          "internalType": "string",
          "name": "name",
          "type": "string"
        },
        {
          "internalType": "string",
          "name": "symbol",
          "type": "string"
        },
        {
          "internalType": "string",
          "name": "tokenURI",
          "type": "string"
        }
      ],
      "name": "mint",
      "outputs": [],
      "stateMutability": "nonpayable",
      "type": "function"
    },
    {
      "inputs": [
        {
          "internalType": "address",
          "name": "addr",
          "type": "address"
        }
      ],
      "name": "getContract",
      "outputs": [
        {
          "internalType": "string",
          "name": "",
          "type": "string"
        },
        {
          "internalType": "string",
          "name": "",
          "type": "string"
        },
        {
          "internalType": "uint256",
          "name": "",
          "type": "uint256"
        }
      ],
      "stateMutability": "view",
      "type": "function",
      "constant": true
    }
  ],
  "bytecode": "0x608060405234801561001057600080fd5b50614013806100206000396000f3fe60806040523480156200001157600080fd5b5060043610620000875760003560e01c8063ba7aef431162000062578063ba7aef4314620000ff578063d0def5211462000116578063d645ddf6146200012d578063edf26d9b146200014457600080fd5b80630ad1c2fa146200008c57806331b6475c14620000bd57806369dc9ff314620000d6575b600080fd5b620000a36200009d36600462000984565b62000174565b604051620000b493929190620009f9565b60405180910390f35b620000d4620000ce36600462000ade565b620002d8565b005b620000ed620000e736600462000984565b620002ec565b604051620000b4949392919062000b78565b620000d46200011036600462000bc0565b6200043f565b620000d46200012736600462000c1d565b62000451565b620000d46200013e36600462000c71565b62000461565b6200015b6200015536600462000d03565b6200046e565b6040516001600160a01b039091168152602001620000b4565b6001600160a01b03811660009081526020819052604081206001810154600282018054606094859490936003909101918390620001b19062000d1d565b80601f0160208091040260200160405190810160405280929190818152602001828054620001df9062000d1d565b8015620002305780601f10620002045761010080835404028352916020019162000230565b820191906000526020600020905b8154815290600101906020018083116200021257829003601f168201915b50505050509250818054620002459062000d1d565b80601f0160208091040260200160405190810160405280929190818152602001828054620002739062000d1d565b8015620002c45780601f106200029857610100808354040283529160200191620002c4565b820191906000526020600020905b815481529060010190602001808311620002a657829003601f168201915b505050505091509250925092509193909250565b620002e68484848462000499565b50505050565b6000602081905290815260409020805460018201546002830180546001600160a01b03909316939192620003209062000d1d565b80601f01602080910402602001604051908101604052809291908181526020018280546200034e9062000d1d565b80156200039f5780601f1062000373576101008083540402835291602001916200039f565b820191906000526020600020905b8154815290600101906020018083116200038157829003601f168201915b505050505090806003018054620003b69062000d1d565b80601f0160208091040260200160405190810160405280929190818152602001828054620003e49062000d1d565b8015620004355780601f10620004095761010080835404028352916020019162000435565b820191906000526020600020905b8154815290600101906020018083116200041757829003601f168201915b5050505050905084565b6200044c8383836200061d565b505050565b6200045d82826200068b565b5050565b6200044c83838362000703565b600181815481106200047f57600080fd5b6000918252602090912001546001600160a01b0316905081565b6000604051620004a990620008a5565b604051809103906000f080158015620004c6573d6000803e3d6000fd5b5060405163ba7aef4360e01b815290915081906001600160a01b0382169063ba7aef4390620004fe9033908890889060040162000d59565b600060405180830381600087803b1580156200051957600080fd5b505af11580156200052e573d6000803e3d6000fd5b5050604080516080810182526001600160a01b0385811680835261048360208085019182528486018e8152606086018e9052600093845283825295909220845181546001600160a01b031916941693909317835551600183015592518051929550909350620005a5926002850192910190620008b3565b5060608201518051620005c3916003840191602090910190620008b3565b50506001805480820182556000919091527fb10e2d527612073b26eecdfd717e6a320cf44b4afac2b0732d9fcbe2b7fa0cf60180546001600160a01b0319166001600160a01b039390931692909217909155505050505050565b60405163ba7aef4360e01b815283906001600160a01b0382169063ba7aef4390620006519033908790879060040162000d59565b600060405180830381600087803b1580156200066c57600080fd5b505af115801562000681573d6000803e3d6000fd5b5050505050505050565b60405163d0def52160e01b815282906001600160a01b0382169063d0def52190620006bd903390869060040162000d8f565b6020604051808303816000875af1158015620006dd573d6000803e3d6000fd5b505050506040513d601f19601f82011682018060405250810190620002e6919062000dbd565b60008383604051620007159062000942565b6200072292919062000dd7565b604051809103906000f0801580156200073f573d6000803e3d6000fd5b5060405163d0def52160e01b815290915081906001600160a01b0382169063d0def5219062000775903390879060040162000d8f565b6020604051808303816000875af115801562000795573d6000803e3d6000fd5b505050506040513d601f19601f82011682018060405250810190620007bb919062000dbd565b50604080516080810182526001600160a01b038381168083526102d160208085019182528486018b8152606086018b9052600093845283825295909220845181546001600160a01b031916941693909317835551600183015592518051929391926200082e9260028501920190620008b3565b50606082015180516200084c916003840191602090910190620008b3565b50506001805480820182556000919091527fb10e2d527612073b26eecdfd717e6a320cf44b4afac2b0732d9fcbe2b7fa0cf60180546001600160a01b0319166001600160a01b0393909316929092179091555050505050565b6118548062000e0a83390190565b828054620008c19062000d1d565b90600052602060002090601f016020900481019282620008e5576000855562000930565b82601f106200090057805160ff191683800117855562000930565b8280016001018555821562000930579182015b828111156200093057825182559160200191906001019062000913565b506200093e92915062000950565b5090565b611980806200265e83390190565b5b808211156200093e576000815560010162000951565b80356001600160a01b03811681146200097f57600080fd5b919050565b6000602082840312156200099757600080fd5b620009a28262000967565b9392505050565b6000815180845260005b81811015620009d157602081850181015186830182015201620009b3565b81811115620009e4576000602083870101525b50601f01601f19169290920160200192915050565b60608152600062000a0e6060830186620009a9565b828103602084015262000a228186620009a9565b915050826040830152949350505050565b634e487b7160e01b600052604160045260246000fd5b600082601f83011262000a5b57600080fd5b813567ffffffffffffffff8082111562000a795762000a7962000a33565b604051601f8301601f19908116603f0116810190828211818310171562000aa45762000aa462000a33565b8160405283815286602085880101111562000abe57600080fd5b836020870160208301376000602085830101528094505050505092915050565b6000806000806080858703121562000af557600080fd5b843567ffffffffffffffff8082111562000b0e57600080fd5b62000b1c8883890162000a49565b9550602087013591508082111562000b3357600080fd5b62000b418883890162000a49565b9450604087013591508082111562000b5857600080fd5b5062000b678782880162000a49565b949793965093946060013593505050565b60018060a01b038516815283602082015260806040820152600062000ba16080830185620009a9565b828103606084015262000bb58185620009a9565b979650505050505050565b60008060006060848603121562000bd657600080fd5b62000be18462000967565b9250602084013567ffffffffffffffff81111562000bfe57600080fd5b62000c0c8682870162000a49565b925050604084013590509250925092565b6000806040838503121562000c3157600080fd5b62000c3c8362000967565b9150602083013567ffffffffffffffff81111562000c5957600080fd5b62000c678582860162000a49565b9150509250929050565b60008060006060848603121562000c8757600080fd5b833567ffffffffffffffff8082111562000ca057600080fd5b62000cae8783880162000a49565b9450602086013591508082111562000cc557600080fd5b62000cd38783880162000a49565b9350604086013591508082111562000cea57600080fd5b5062000cf98682870162000a49565b9150509250925092565b60006020828403121562000d1657600080fd5b5035919050565b600181811c9082168062000d3257607f821691505b60208210810362000d5357634e487b7160e01b600052602260045260246000fd5b50919050565b6001600160a01b038416815260606020820181905260009062000d7f90830185620009a9565b9050826040830152949350505050565b6001600160a01b038316815260406020820181905260009062000db590830184620009a9565b949350505050565b60006020828403121562000dd057600080fd5b5051919050565b60408152600062000dec6040830185620009a9565b828103602084015262000e008185620009a9565b9594505050505056fe60806040523480156200001157600080fd5b506040805160208101909152600081526200002c8162000033565b506200012e565b8051620000489060029060208401906200004c565b5050565b8280546200005a90620000f2565b90600052602060002090601f0160209004810192826200007e5760008555620000c9565b82601f106200009957805160ff1916838001178555620000c9565b82800160010185558215620000c9579182015b82811115620000c9578251825591602001919060010190620000ac565b50620000d7929150620000db565b5090565b5b80821115620000d75760008155600101620000dc565b600181811c908216806200010757607f821691505b6020821081036200012857634e487b7160e01b600052602260045260246000fd5b50919050565b611716806200013e6000396000f3fe608060405234801561001057600080fd5b506004361061009d5760003560e01c8063a22cb46511610066578063a22cb46514610140578063b28f6df614610153578063ba7aef4314610166578063e985e9c514610179578063f242432a146101b557600080fd5b8062fdd58e146100a257806301ffc9a7146100c85780630e89341c146100eb5780632eb2c2d61461010b5780634e1273f414610120575b600080fd5b6100b56100b0366004610ea6565b6101c8565b6040519081526020015b60405180910390f35b6100db6100d6366004610ee9565b61025f565b60405190151581526020016100bf565b6100fe6100f9366004610f0d565b6102b1565b6040516100bf9190610f73565b61011e6101193660046110dc565b610345565b005b61013361012e366004611186565b6103dc565b6040516100bf919061128c565b61011e61014e36600461129f565b610506565b6100fe610161366004610f0d565b610515565b61011e6101743660046112db565b6105af565b6100db610187366004611346565b6001600160a01b03918216600090815260016020908152604080832093909416825291909152205460ff1690565b61011e6101c3366004611379565b61060e565b60006001600160a01b0383166102395760405162461bcd60e51b815260206004820152602b60248201527f455243313135353a2062616c616e636520717565727920666f7220746865207a60448201526a65726f206164647265737360a81b60648201526084015b60405180910390fd5b506000908152602081815260408083206001600160a01b03949094168352929052205490565b60006001600160e01b03198216636cdb3d1360e11b148061029057506001600160e01b031982166303a24d0760e21b145b806102ab57506301ffc9a760e01b6001600160e01b03198316145b92915050565b6060600280546102c0906113de565b80601f01602080910402602001604051908101604052809291908181526020018280546102ec906113de565b80156103395780601f1061030e57610100808354040283529160200191610339565b820191906000526020600020905b81548152906001019060200180831161031c57829003601f168201915b50505050509050919050565b6001600160a01b03851633148061036157506103618533610187565b6103c85760405162461bcd60e51b815260206004820152603260248201527f455243313135353a207472616e736665722063616c6c6572206973206e6f74206044820152711bdddb995c881b9bdc88185c1c1c9bdd995960721b6064820152608401610230565b6103d58585858585610695565b5050505050565b606081518351146104415760405162461bcd60e51b815260206004820152602960248201527f455243313135353a206163636f756e747320616e6420696473206c656e677468604482015268040dad2e6dac2e8c6d60bb1b6064820152608401610230565b6000835167ffffffffffffffff81111561045d5761045d610f86565b604051908082528060200260200182016040528015610486578160200160208202803683370190505b50905060005b84518110156104fe576104d18582815181106104aa576104aa611418565b60200260200101518583815181106104c4576104c4611418565b60200260200101516101c8565b8282815181106104e3576104e3611418565b60209081029190910101526104f781611444565b905061048c565b509392505050565b610511338383610872565b5050565b6004602052600090815260409020805461052e906113de565b80601f016020809104026020016040519081016040528092919081815260200182805461055a906113de565b80156105a75780601f1061057c576101008083540402835291602001916105a7565b820191906000526020600020905b81548152906001019060200180831161058a57829003601f168201915b505050505081565b6105bd600380546001019055565b60006105c860035490565b600081815260046020908152604090912085519293506105ec929091860190610df1565b5061060884828460405180602001604052806000815250610952565b50505050565b6001600160a01b03851633148061062a575061062a8533610187565b6106885760405162461bcd60e51b815260206004820152602960248201527f455243313135353a2063616c6c6572206973206e6f74206f776e6572206e6f7260448201526808185c1c1c9bdd995960ba1b6064820152608401610230565b6103d58585858585610a66565b81518351146106f75760405162461bcd60e51b815260206004820152602860248201527f455243313135353a2069647320616e6420616d6f756e7473206c656e677468206044820152670dad2e6dac2e8c6d60c31b6064820152608401610230565b6001600160a01b03841661071d5760405162461bcd60e51b81526004016102309061145d565b3360005b845181101561080457600085828151811061073e5761073e611418565b60200260200101519050600085838151811061075c5761075c611418565b602090810291909101810151600084815280835260408082206001600160a01b038e1683529093529190912054909150818110156107ac5760405162461bcd60e51b8152600401610230906114a2565b6000838152602081815260408083206001600160a01b038e8116855292528083208585039055908b168252812080548492906107e99084906114ec565b92505081905550505050806107fd90611444565b9050610721565b50846001600160a01b0316866001600160a01b0316826001600160a01b03167f4a39dc06d4c0dbc64b70af90fd698a233a518aa5d07e595d983b8c0526c8f7fb8787604051610854929190611504565b60405180910390a461086a818787878787610b90565b505050505050565b816001600160a01b0316836001600160a01b0316036108e55760405162461bcd60e51b815260206004820152602960248201527f455243313135353a2073657474696e6720617070726f76616c20737461747573604482015268103337b91039b2b63360b91b6064820152608401610230565b6001600160a01b03838116600081815260016020908152604080832094871680845294825291829020805460ff191686151590811790915591519182527f17307eab39ab6107e8899845ad3d59bd9653f200f220920489ca2b5937696c31910160405180910390a3505050565b6001600160a01b0384166109b25760405162461bcd60e51b815260206004820152602160248201527f455243313135353a206d696e7420746f20746865207a65726f206164647265736044820152607360f81b6064820152608401610230565b3360006109be85610ceb565b905060006109cb85610ceb565b90506000868152602081815260408083206001600160a01b038b168452909152812080548792906109fd9084906114ec565b909155505060408051878152602081018790526001600160a01b03808a1692600092918716917fc3d58168c5ae7397731d063d5bbf3d657854427343f4c083240f7aacaa2d0f62910160405180910390a4610a5d83600089898989610d36565b50505050505050565b6001600160a01b038416610a8c5760405162461bcd60e51b81526004016102309061145d565b336000610a9885610ceb565b90506000610aa585610ceb565b90506000868152602081815260408083206001600160a01b038c16845290915290205485811015610ae85760405162461bcd60e51b8152600401610230906114a2565b6000878152602081815260408083206001600160a01b038d8116855292528083208985039055908a16825281208054889290610b259084906114ec565b909155505060408051888152602081018890526001600160a01b03808b16928c821692918816917fc3d58168c5ae7397731d063d5bbf3d657854427343f4c083240f7aacaa2d0f62910160405180910390a4610b85848a8a8a8a8a610d36565b505050505050505050565b6001600160a01b0384163b1561086a5760405163bc197c8160e01b81526001600160a01b0385169063bc197c8190610bd49089908990889088908890600401611532565b6020604051808303816000875af1925050508015610c0f575060408051601f3d908101601f19168201909252610c0c91810190611590565b60015b610cbb57610c1b6115ad565b806308c379a003610c545750610c2f6115c9565b80610c3a5750610c56565b8060405162461bcd60e51b81526004016102309190610f73565b505b60405162461bcd60e51b815260206004820152603460248201527f455243313135353a207472616e7366657220746f206e6f6e20455243313135356044820152732932b1b2b4bb32b91034b6b83632b6b2b73a32b960611b6064820152608401610230565b6001600160e01b0319811663bc197c8160e01b14610a5d5760405162461bcd60e51b815260040161023090611653565b60408051600180825281830190925260609160009190602080830190803683370190505090508281600081518110610d2557610d25611418565b602090810291909101015292915050565b6001600160a01b0384163b1561086a5760405163f23a6e6160e01b81526001600160a01b0385169063f23a6e6190610d7a908990899088908890889060040161169b565b6020604051808303816000875af1925050508015610db5575060408051601f3d908101601f19168201909252610db291810190611590565b60015b610dc157610c1b6115ad565b6001600160e01b0319811663f23a6e6160e01b14610a5d5760405162461bcd60e51b815260040161023090611653565b828054610dfd906113de565b90600052602060002090601f016020900481019282610e1f5760008555610e65565b82601f10610e3857805160ff1916838001178555610e65565b82800160010185558215610e65579182015b82811115610e65578251825591602001919060010190610e4a565b50610e71929150610e75565b5090565b5b80821115610e715760008155600101610e76565b80356001600160a01b0381168114610ea157600080fd5b919050565b60008060408385031215610eb957600080fd5b610ec283610e8a565b946020939093013593505050565b6001600160e01b031981168114610ee657600080fd5b50565b600060208284031215610efb57600080fd5b8135610f0681610ed0565b9392505050565b600060208284031215610f1f57600080fd5b5035919050565b6000815180845260005b81811015610f4c57602081850181015186830182015201610f30565b81811115610f5e576000602083870101525b50601f01601f19169290920160200192915050565b602081526000610f066020830184610f26565b634e487b7160e01b600052604160045260246000fd5b601f8201601f1916810167ffffffffffffffff81118282101715610fc257610fc2610f86565b6040525050565b600067ffffffffffffffff821115610fe357610fe3610f86565b5060051b60200190565b600082601f830112610ffe57600080fd5b8135602061100b82610fc9565b6040516110188282610f9c565b83815260059390931b850182019282810191508684111561103857600080fd5b8286015b84811015611053578035835291830191830161103c565b509695505050505050565b600067ffffffffffffffff83111561107857611078610f86565b60405161108f601f8501601f191660200182610f9c565b8091508381528484840111156110a457600080fd5b83836020830137600060208583010152509392505050565b600082601f8301126110cd57600080fd5b610f068383356020850161105e565b600080600080600060a086880312156110f457600080fd5b6110fd86610e8a565b945061110b60208701610e8a565b9350604086013567ffffffffffffffff8082111561112857600080fd5b61113489838a01610fed565b9450606088013591508082111561114a57600080fd5b61115689838a01610fed565b9350608088013591508082111561116c57600080fd5b50611179888289016110bc565b9150509295509295909350565b6000806040838503121561119957600080fd5b823567ffffffffffffffff808211156111b157600080fd5b818501915085601f8301126111c557600080fd5b813560206111d282610fc9565b6040516111df8282610f9c565b83815260059390931b85018201928281019150898411156111ff57600080fd5b948201945b838610156112245761121586610e8a565b82529482019490820190611204565b9650508601359250508082111561123a57600080fd5b5061124785828601610fed565b9150509250929050565b600081518084526020808501945080840160005b8381101561128157815187529582019590820190600101611265565b509495945050505050565b602081526000610f066020830184611251565b600080604083850312156112b257600080fd5b6112bb83610e8a565b9150602083013580151581146112d057600080fd5b809150509250929050565b6000806000606084860312156112f057600080fd5b6112f984610e8a565b9250602084013567ffffffffffffffff81111561131557600080fd5b8401601f8101861361132657600080fd5b6113358682356020840161105e565b925050604084013590509250925092565b6000806040838503121561135957600080fd5b61136283610e8a565b915061137060208401610e8a565b90509250929050565b600080600080600060a0868803121561139157600080fd5b61139a86610e8a565b94506113a860208701610e8a565b93506040860135925060608601359150608086013567ffffffffffffffff8111156113d257600080fd5b611179888289016110bc565b600181811c908216806113f257607f821691505b60208210810361141257634e487b7160e01b600052602260045260246000fd5b50919050565b634e487b7160e01b600052603260045260246000fd5b634e487b7160e01b600052601160045260246000fd5b6000600182016114565761145661142e565b5060010190565b60208082526025908201527f455243313135353a207472616e7366657220746f20746865207a65726f206164604082015264647265737360d81b606082015260800190565b6020808252602a908201527f455243313135353a20696e73756666696369656e742062616c616e636520666f60408201526939103a3930b739b332b960b11b606082015260800190565b600082198211156114ff576114ff61142e565b500190565b6040815260006115176040830185611251565b82810360208401526115298185611251565b95945050505050565b6001600160a01b0386811682528516602082015260a06040820181905260009061155e90830186611251565b82810360608401526115708186611251565b905082810360808401526115848185610f26565b98975050505050505050565b6000602082840312156115a257600080fd5b8151610f0681610ed0565b600060033d11156115c65760046000803e5060005160e01c5b90565b600060443d10156115d75790565b6040516003193d81016004833e81513d67ffffffffffffffff816024840111818411171561160757505050505090565b828501915081518181111561161f5750505050505090565b843d87010160208285010111156116395750505050505090565b61164860208286010187610f9c565b509095945050505050565b60208082526028908201527f455243313135353a204552433131353552656365697665722072656a656374656040820152676420746f6b656e7360c01b606082015260800190565b6001600160a01b03868116825285166020820152604081018490526060810183905260a0608082018190526000906116d590830184610f26565b97965050505050505056fea26469706673582212203e86f0c3f08facbe1d4cd3d29628a3a7387bd4d56ff113084687176a66b8d92564736f6c634300080e003360806040523480156200001157600080fd5b5060405162001980380380620019808339810160408190526200003491620001e1565b8151829082906200004d9060009060208501906200006e565b508051620000639060019060208401906200006e565b505050505062000287565b8280546200007c906200024b565b90600052602060002090601f016020900481019282620000a05760008555620000eb565b82601f10620000bb57805160ff1916838001178555620000eb565b82800160010185558215620000eb579182015b82811115620000eb578251825591602001919060010190620000ce565b50620000f9929150620000fd565b5090565b5b80821115620000f95760008155600101620000fe565b634e487b7160e01b600052604160045260246000fd5b600082601f8301126200013c57600080fd5b81516001600160401b038082111562000159576200015962000114565b604051601f8301601f19908116603f0116810190828211818310171562000184576200018462000114565b81604052838152602092508683858801011115620001a157600080fd5b600091505b83821015620001c55785820183015181830184015290820190620001a6565b83821115620001d75760008385830101525b9695505050505050565b60008060408385031215620001f557600080fd5b82516001600160401b03808211156200020d57600080fd5b6200021b868387016200012a565b935060208501519150808211156200023257600080fd5b5062000241858286016200012a565b9150509250929050565b600181811c908216806200026057607f821691505b6020821081036200028157634e487b7160e01b600052602260045260246000fd5b50919050565b6116e980620002976000396000f3fe608060405234801561001057600080fd5b50600436106100ea5760003560e01c806370a082311161008c578063b88d4fde11610066578063b88d4fde146101e1578063c87b56dd146101f4578063d0def52114610207578063e985e9c51461021a57600080fd5b806370a08231146101a557806395d89b41146101c6578063a22cb465146101ce57600080fd5b8063095ea7b3116100c8578063095ea7b31461015757806323b872dd1461016c57806342842e0e1461017f5780636352211e1461019257600080fd5b806301ffc9a7146100ef57806306fdde0314610117578063081812fc1461012c575b600080fd5b6101026100fd366004611184565b610256565b60405190151581526020015b60405180910390f35b61011f6102a8565b60405161010e91906111f9565b61013f61013a36600461120c565b61033a565b6040516001600160a01b03909116815260200161010e565b61016a610165366004611241565b6103c7565b005b61016a61017a36600461126b565b6104dc565b61016a61018d36600461126b565b61050d565b61013f6101a036600461120c565b610528565b6101b86101b33660046112a7565b61059f565b60405190815260200161010e565b61011f610626565b61016a6101dc3660046112c2565b610635565b61016a6101ef36600461138a565b610644565b61011f61020236600461120c565b61067c565b6101b8610215366004611406565b6107f2565b610102610228366004611468565b6001600160a01b03918216600090815260056020908152604080832093909416825291909152205460ff1690565b60006001600160e01b031982166380ac58cd60e01b148061028757506001600160e01b03198216635b5e139f60e01b145b806102a257506301ffc9a760e01b6001600160e01b03198316145b92915050565b6060600080546102b79061149b565b80601f01602080910402602001604051908101604052809291908181526020018280546102e39061149b565b80156103305780601f1061030557610100808354040283529160200191610330565b820191906000526020600020905b81548152906001019060200180831161031357829003601f168201915b5050505050905090565b60006103458261082a565b6103ab5760405162461bcd60e51b815260206004820152602c60248201527f4552433732313a20617070726f76656420717565727920666f72206e6f6e657860448201526b34b9ba32b73a103a37b5b2b760a11b60648201526084015b60405180910390fd5b506000908152600460205260409020546001600160a01b031690565b60006103d282610528565b9050806001600160a01b0316836001600160a01b03160361043f5760405162461bcd60e51b815260206004820152602160248201527f4552433732313a20617070726f76616c20746f2063757272656e74206f776e656044820152603960f91b60648201526084016103a2565b336001600160a01b038216148061045b575061045b8133610228565b6104cd5760405162461bcd60e51b815260206004820152603860248201527f4552433732313a20617070726f76652063616c6c6572206973206e6f74206f7760448201527f6e6572206e6f7220617070726f76656420666f7220616c6c000000000000000060648201526084016103a2565b6104d78383610847565b505050565b6104e633826108b5565b6105025760405162461bcd60e51b81526004016103a2906114d5565b6104d783838361099e565b6104d783838360405180602001604052806000815250610644565b6000818152600260205260408120546001600160a01b0316806102a25760405162461bcd60e51b815260206004820152602960248201527f4552433732313a206f776e657220717565727920666f72206e6f6e657869737460448201526832b73a103a37b5b2b760b91b60648201526084016103a2565b60006001600160a01b03821661060a5760405162461bcd60e51b815260206004820152602a60248201527f4552433732313a2062616c616e636520717565727920666f7220746865207a65604482015269726f206164647265737360b01b60648201526084016103a2565b506001600160a01b031660009081526003602052604090205490565b6060600180546102b79061149b565b610640338383610b3a565b5050565b61064e33836108b5565b61066a5760405162461bcd60e51b81526004016103a2906114d5565b61067684848484610c08565b50505050565b60606106878261082a565b6106ed5760405162461bcd60e51b815260206004820152603160248201527f45524337323155524953746f726167653a2055524920717565727920666f72206044820152703737b732bc34b9ba32b73a103a37b5b2b760791b60648201526084016103a2565b600082815260066020526040812080546107069061149b565b80601f01602080910402602001604051908101604052809291908181526020018280546107329061149b565b801561077f5780601f106107545761010080835404028352916020019161077f565b820191906000526020600020905b81548152906001019060200180831161076257829003601f168201915b50505050509050600061079d60408051602081019091526000815290565b905080516000036107af575092915050565b8151156107e15780826040516020016107c9929190611526565b60405160208183030381529060405292505050919050565b6107ea84610c3b565b949350505050565b6000610802600780546001019055565b600061080d60075490565b90506108198482610d12565b6108238184610e45565b9392505050565b6000908152600260205260409020546001600160a01b0316151590565b600081815260046020526040902080546001600160a01b0319166001600160a01b038416908117909155819061087c82610528565b6001600160a01b03167f8c5be1e5ebec7d5bd14f71427d1e84f3dd0314c0f7b2291e5b200ac8c7c3b92560405160405180910390a45050565b60006108c08261082a565b6109215760405162461bcd60e51b815260206004820152602c60248201527f4552433732313a206f70657261746f7220717565727920666f72206e6f6e657860448201526b34b9ba32b73a103a37b5b2b760a11b60648201526084016103a2565b600061092c83610528565b9050806001600160a01b0316846001600160a01b0316148061097357506001600160a01b0380821660009081526005602090815260408083209388168352929052205460ff165b806107ea5750836001600160a01b031661098c8461033a565b6001600160a01b031614949350505050565b826001600160a01b03166109b182610528565b6001600160a01b031614610a155760405162461bcd60e51b815260206004820152602560248201527f4552433732313a207472616e736665722066726f6d20696e636f72726563742060448201526437bbb732b960d91b60648201526084016103a2565b6001600160a01b038216610a775760405162461bcd60e51b8152602060048201526024808201527f4552433732313a207472616e7366657220746f20746865207a65726f206164646044820152637265737360e01b60648201526084016103a2565b610a82600082610847565b6001600160a01b0383166000908152600360205260408120805460019290610aab90849061156b565b90915550506001600160a01b0382166000908152600360205260408120805460019290610ad9908490611582565b909155505060008181526002602052604080822080546001600160a01b0319166001600160a01b0386811691821790925591518493918716917fddf252ad1be2c89b69c2b068fc378daa952ba7f163c4a11628f55a4df523b3ef91a4505050565b816001600160a01b0316836001600160a01b031603610b9b5760405162461bcd60e51b815260206004820152601960248201527f4552433732313a20617070726f766520746f2063616c6c65720000000000000060448201526064016103a2565b6001600160a01b03838116600081815260056020908152604080832094871680845294825291829020805460ff191686151590811790915591519182527f17307eab39ab6107e8899845ad3d59bd9653f200f220920489ca2b5937696c31910160405180910390a3505050565b610c1384848461099e565b610c1f84848484610ed0565b6106765760405162461bcd60e51b81526004016103a29061159a565b6060610c468261082a565b610caa5760405162461bcd60e51b815260206004820152602f60248201527f4552433732314d657461646174613a2055524920717565727920666f72206e6f60448201526e3732bc34b9ba32b73a103a37b5b2b760891b60648201526084016103a2565b6000610cc160408051602081019091526000815290565b90506000815111610ce15760405180602001604052806000815250610823565b80610ceb84610fd1565b604051602001610cfc929190611526565b6040516020818303038152906040529392505050565b6001600160a01b038216610d685760405162461bcd60e51b815260206004820181905260248201527f4552433732313a206d696e7420746f20746865207a65726f206164647265737360448201526064016103a2565b610d718161082a565b15610dbe5760405162461bcd60e51b815260206004820152601c60248201527f4552433732313a20746f6b656e20616c7265616479206d696e7465640000000060448201526064016103a2565b6001600160a01b0382166000908152600360205260408120805460019290610de7908490611582565b909155505060008181526002602052604080822080546001600160a01b0319166001600160a01b03861690811790915590518392907fddf252ad1be2c89b69c2b068fc378daa952ba7f163c4a11628f55a4df523b3ef908290a45050565b610e4e8261082a565b610eb15760405162461bcd60e51b815260206004820152602e60248201527f45524337323155524953746f726167653a2055524920736574206f66206e6f6e60448201526d32bc34b9ba32b73a103a37b5b2b760911b60648201526084016103a2565b600082815260066020908152604090912082516104d7928401906110d2565b60006001600160a01b0384163b15610fc657604051630a85bd0160e11b81526001600160a01b0385169063150b7a0290610f149033908990889088906004016115ec565b6020604051808303816000875af1925050508015610f4f575060408051601f3d908101601f19168201909252610f4c91810190611629565b60015b610fac573d808015610f7d576040519150601f19603f3d011682016040523d82523d6000602084013e610f82565b606091505b508051600003610fa45760405162461bcd60e51b81526004016103a29061159a565b805181602001fd5b6001600160e01b031916630a85bd0160e11b1490506107ea565b506001949350505050565b606081600003610ff85750506040805180820190915260018152600360fc1b602082015290565b8160005b8115611022578061100c81611646565b915061101b9050600a83611675565b9150610ffc565b60008167ffffffffffffffff81111561103d5761103d6112fe565b6040519080825280601f01601f191660200182016040528015611067576020820181803683370190505b5090505b84156107ea5761107c60018361156b565b9150611089600a86611689565b611094906030611582565b60f81b8183815181106110a9576110a961169d565b60200101906001600160f81b031916908160001a9053506110cb600a86611675565b945061106b565b8280546110de9061149b565b90600052602060002090601f0160209004810192826111005760008555611146565b82601f1061111957805160ff1916838001178555611146565b82800160010185558215611146579182015b8281111561114657825182559160200191906001019061112b565b50611152929150611156565b5090565b5b808211156111525760008155600101611157565b6001600160e01b03198116811461118157600080fd5b50565b60006020828403121561119657600080fd5b81356108238161116b565b60005b838110156111bc5781810151838201526020016111a4565b838111156106765750506000910152565b600081518084526111e58160208601602086016111a1565b601f01601f19169290920160200192915050565b60208152600061082360208301846111cd565b60006020828403121561121e57600080fd5b5035919050565b80356001600160a01b038116811461123c57600080fd5b919050565b6000806040838503121561125457600080fd5b61125d83611225565b946020939093013593505050565b60008060006060848603121561128057600080fd5b61128984611225565b925061129760208501611225565b9150604084013590509250925092565b6000602082840312156112b957600080fd5b61082382611225565b600080604083850312156112d557600080fd5b6112de83611225565b9150602083013580151581146112f357600080fd5b809150509250929050565b634e487b7160e01b600052604160045260246000fd5b600067ffffffffffffffff8084111561132f5761132f6112fe565b604051601f8501601f19908116603f01168101908282118183101715611357576113576112fe565b8160405280935085815286868601111561137057600080fd5b858560208301376000602087830101525050509392505050565b600080600080608085870312156113a057600080fd5b6113a985611225565b93506113b760208601611225565b925060408501359150606085013567ffffffffffffffff8111156113da57600080fd5b8501601f810187136113eb57600080fd5b6113fa87823560208401611314565b91505092959194509250565b6000806040838503121561141957600080fd5b61142283611225565b9150602083013567ffffffffffffffff81111561143e57600080fd5b8301601f8101851361144f57600080fd5b61145e85823560208401611314565b9150509250929050565b6000806040838503121561147b57600080fd5b61148483611225565b915061149260208401611225565b90509250929050565b600181811c908216806114af57607f821691505b6020821081036114cf57634e487b7160e01b600052602260045260246000fd5b50919050565b60208082526031908201527f4552433732313a207472616e736665722063616c6c6572206973206e6f74206f6040820152701ddb995c881b9bdc88185c1c1c9bdd9959607a1b606082015260800190565b600083516115388184602088016111a1565b83519083019061154c8183602088016111a1565b01949350505050565b634e487b7160e01b600052601160045260246000fd5b60008282101561157d5761157d611555565b500390565b6000821982111561159557611595611555565b500190565b60208082526032908201527f4552433732313a207472616e7366657220746f206e6f6e20455243373231526560408201527131b2b4bb32b91034b6b83632b6b2b73a32b960711b606082015260800190565b6001600160a01b038581168252841660208201526040810183905260806060820181905260009061161f908301846111cd565b9695505050505050565b60006020828403121561163b57600080fd5b81516108238161116b565b60006001820161165857611658611555565b5060010190565b634e487b7160e01b600052601260045260246000fd5b6000826116845761168461165f565b500490565b6000826116985761169861165f565b500690565b634e487b7160e01b600052603260045260246000fdfea2646970667358221220ce1947df462dfadf1f812a7998fc93df6fcba612a2e04a542a5bfe6f528eafc664736f6c634300080e0033a26469706673582212209c06c72da0776d7732f9ed81d5dc1826f05d3d39a4345ec132f9e162f0bc0fde64736f6c634300080e0033",
  "immutableReferences": {},
  "source": "// SPDX-License-Identifier: MIT\n\npragma solidity ^0.8.0;\n\nimport \"@openzeppelin/contracts/utils/Counters.sol\";\nimport \"@openzeppelin/contracts/token/ERC721/extensions/ERC721URIStorage.sol\";\nimport \"@openzeppelin/contracts/security/ReentrancyGuard.sol\";\nimport \"@openzeppelin/contracts/token/ERC721/ERC721.sol\";\nimport \"@openzeppelin/contracts/token/ERC1155/ERC1155.sol\";\n\ncontract PolyMintERC721 is ERC721URIStorage {\n    using Counters for Counters.Counter;\n    Counters.Counter private _tokenIds;\n\n    constructor(string memory name_, string memory symbol_)\n        ERC721(name_, symbol_)\n    {}\n\n    function mint(address recipient, string memory tokenURI)\n        public\n        returns (uint256)\n    {\n        _tokenIds.increment();\n\n        uint256 newItemId = _tokenIds.current();\n\n        _mint(recipient, newItemId);\n        _setTokenURI(newItemId, tokenURI);\n\n        return newItemId;\n    }\n}\n\ncontract PolyMintERC1155 is ERC1155 {\n    using Counters for Counters.Counter;\n    Counters.Counter private _tokenIds;\n\n    mapping(uint256 => string) public lookupmap;\n\n    constructor() ERC1155(\"\") {}\n\n    function mint(\n        address recipient,\n        string memory tokenURI,\n        uint256 amount\n    ) public {\n        _tokenIds.increment();\n\n        uint256 newItemId = _tokenIds.current();\n\n        lookupmap[newItemId] = tokenURI;\n        _mint(recipient, newItemId, amount, \"\");\n    }\n}\n\ncontract PolyMintFactory {\n    mapping(address => PolyMint) public contracts;\n    address[] public addresses;\n    struct PolyMint {\n        address contractAddress;\n        uint256 contractType;\n        string name;\n        string symbol;\n    }\n\n    function mint(\n        string memory name,\n        string memory symbol,\n        string memory tokenURI\n    ) public {\n        _mint721(name, symbol, tokenURI);\n    }\n\n    function mint(\n        string memory name,\n        string memory symbol,\n        string memory tokenURI,\n        uint256 amount\n    ) public {\n        _mint1155(name, symbol, tokenURI, amount);\n    }\n\n    function mint(\n        address contractAddress,\n        string memory tokenURI\n    ) public {\n        _mint721(contractAddress, tokenURI);\n    }\n\n    function mint(\n        address contractAddress,\n        string memory tokenURI,\n        uint256 amount\n    ) public {\n        _mint1155(contractAddress, tokenURI, amount);\n    }\n\n    function _mint721(\n        string memory name,\n        string memory symbol,\n        string memory tokenURI\n    ) internal {\n        PolyMintERC721 contract_ = new PolyMintERC721(name, symbol);\n        address erc721Address = address(contract_);\n        contract_.mint(msg.sender, tokenURI);\n        contracts[erc721Address] = PolyMint(erc721Address, 721, name, symbol);\n        addresses.push(erc721Address);\n    }\n\n    function _mint721(address contractAddress, string memory tokenURI)\n        internal\n    {\n        PolyMintERC721 erc721 = PolyMintERC721(contractAddress);\n        erc721.mint(msg.sender, tokenURI);\n    }\n\n    function _mint1155(\n        string memory name,\n        string memory symbol,\n        string memory tokenURI,\n        uint256 amount\n    ) internal {\n        PolyMintERC1155 contract_ = new PolyMintERC1155();\n        address erc1155Address = address(contract_);\n        contract_.mint(msg.sender, tokenURI, amount);\n        contracts[erc1155Address] = PolyMint(\n            erc1155Address,\n            1155,\n            name,\n            symbol\n        );\n        addresses.push(erc1155Address);\n    }\n\n    function _mint1155(\n        address contractAddress,\n        string memory tokenURI,\n        uint256 amount\n    ) internal {\n        PolyMintERC1155 erc1155 = PolyMintERC1155(contractAddress);\n        erc1155.mint(msg.sender, tokenURI, amount);\n    }\n\n    function getContract(address addr)\n        public\n        view\n        returns (\n            string memory,\n            string memory,\n            uint256\n        )\n    {\n        return (\n            contracts[addr].name,\n            contracts[addr].symbol,\n            contracts[addr].contractType\n        );\n    }\n}\n",
  "sourcePath": "/Users/maadhav/Documents/web3Projects/poly-mint/contracts/PolyMintFactory.sol",
  "compiler": {
    "name": "solc",
    "version": "0.8.14+commit.80d49f37.Emscripten.clang"
  },
  "schemaVersion": "3.4.2",
  "updatedAt": "2022-06-15T14:51:15.825Z",
  "networkType": "ethereum",
  "devdoc": {
    "kind": "dev",
    "methods": {},
    "version": 1
  },
  "userdoc": {
    "kind": "user",
    "methods": {},
    "version": 1
  }
}