{
  "contractName": "PolyMintERC1155",
  "abi": [
    {
      "inputs": [],
      "stateMutability": "nonpayable",
      "type": "constructor"
    },
    {
      "anonymous": false,
      "inputs": [
        {
          "indexed": true,
          "internalType": "address",
          "name": "account",
          "type": "address"
        },
        {
          "indexed": true,
          "internalType": "address",
          "name": "operator",
          "type": "address"
        },
        {
          "indexed": false,
          "internalType": "bool",
          "name": "approved",
          "type": "bool"
        }
      ],
      "name": "ApprovalForAll",
      "type": "event"
    },
    {
      "anonymous": false,
      "inputs": [
        {
          "indexed": true,
          "internalType": "address",
          "name": "operator",
          "type": "address"
        },
        {
          "indexed": true,
          "internalType": "address",
          "name": "from",
          "type": "address"
        },
        {
          "indexed": true,
          "internalType": "address",
          "name": "to",
          "type": "address"
        },
        {
          "indexed": false,
          "internalType": "uint256[]",
          "name": "ids",
          "type": "uint256[]"
        },
        {
          "indexed": false,
          "internalType": "uint256[]",
          "name": "values",
          "type": "uint256[]"
        }
      ],
      "name": "TransferBatch",
      "type": "event"
    },
    {
      "anonymous": false,
      "inputs": [
        {
          "indexed": true,
          "internalType": "address",
          "name": "operator",
          "type": "address"
        },
        {
          "indexed": true,
          "internalType": "address",
          "name": "from",
          "type": "address"
        },
        {
          "indexed": true,
          "internalType": "address",
          "name": "to",
          "type": "address"
        },
        {
          "indexed": false,
          "internalType": "uint256",
          "name": "id",
          "type": "uint256"
        },
        {
          "indexed": false,
          "internalType": "uint256",
          "name": "value",
          "type": "uint256"
        }
      ],
      "name": "TransferSingle",
      "type": "event"
    },
    {
      "anonymous": false,
      "inputs": [
        {
          "indexed": false,
          "internalType": "string",
          "name": "value",
          "type": "string"
        },
        {
          "indexed": true,
          "internalType": "uint256",
          "name": "id",
          "type": "uint256"
        }
      ],
      "name": "URI",
      "type": "event"
    },
    {
      "inputs": [
        {
          "internalType": "address",
          "name": "account",
          "type": "address"
        },
        {
          "internalType": "uint256",
          "name": "id",
          "type": "uint256"
        }
      ],
      "name": "balanceOf",
      "outputs": [
        {
          "internalType": "uint256",
          "name": "",
          "type": "uint256"
        }
      ],
      "stateMutability": "view",
      "type": "function"
    },
    {
      "inputs": [
        {
          "internalType": "address[]",
          "name": "accounts",
          "type": "address[]"
        },
        {
          "internalType": "uint256[]",
          "name": "ids",
          "type": "uint256[]"
        }
      ],
      "name": "balanceOfBatch",
      "outputs": [
        {
          "internalType": "uint256[]",
          "name": "",
          "type": "uint256[]"
        }
      ],
      "stateMutability": "view",
      "type": "function"
    },
    {
      "inputs": [
        {
          "internalType": "address",
          "name": "account",
          "type": "address"
        },
        {
          "internalType": "address",
          "name": "operator",
          "type": "address"
        }
      ],
      "name": "isApprovedForAll",
      "outputs": [
        {
          "internalType": "bool",
          "name": "",
          "type": "bool"
        }
      ],
      "stateMutability": "view",
      "type": "function"
    },
    {
      "inputs": [
        {
          "internalType": "uint256",
          "name": "",
          "type": "uint256"
        }
      ],
      "name": "lookupmap",
      "outputs": [
        {
          "internalType": "string",
          "name": "",
          "type": "string"
        }
      ],
      "stateMutability": "view",
      "type": "function"
    },
    {
      "inputs": [
        {
          "internalType": "address",
          "name": "from",
          "type": "address"
        },
        {
          "internalType": "address",
          "name": "to",
          "type": "address"
        },
        {
          "internalType": "uint256[]",
          "name": "ids",
          "type": "uint256[]"
        },
        {
          "internalType": "uint256[]",
          "name": "amounts",
          "type": "uint256[]"
        },
        {
          "internalType": "bytes",
          "name": "data",
          "type": "bytes"
        }
      ],
      "name": "safeBatchTransferFrom",
      "outputs": [],
      "stateMutability": "nonpayable",
      "type": "function"
    },
    {
      "inputs": [
        {
          "internalType": "address",
          "name": "from",
          "type": "address"
        },
        {
          "internalType": "address",
          "name": "to",
          "type": "address"
        },
        {
          "internalType": "uint256",
          "name": "id",
          "type": "uint256"
        },
        {
          "internalType": "uint256",
          "name": "amount",
          "type": "uint256"
        },
        {
          "internalType": "bytes",
          "name": "data",
          "type": "bytes"
        }
      ],
      "name": "safeTransferFrom",
      "outputs": [],
      "stateMutability": "nonpayable",
      "type": "function"
    },
    {
      "inputs": [
        {
          "internalType": "address",
          "name": "operator",
          "type": "address"
        },
        {
          "internalType": "bool",
          "name": "approved",
          "type": "bool"
        }
      ],
      "name": "setApprovalForAll",
      "outputs": [],
      "stateMutability": "nonpayable",
      "type": "function"
    },
    {
      "inputs": [
        {
          "internalType": "bytes4",
          "name": "interfaceId",
          "type": "bytes4"
        }
      ],
      "name": "supportsInterface",
      "outputs": [
        {
          "internalType": "bool",
          "name": "",
          "type": "bool"
        }
      ],
      "stateMutability": "view",
      "type": "function"
    },
    {
      "inputs": [
        {
          "internalType": "uint256",
          "name": "",
          "type": "uint256"
        }
      ],
      "name": "uri",
      "outputs": [
        {
          "internalType": "string",
          "name": "",
          "type": "string"
        }
      ],
      "stateMutability": "view",
      "type": "function"
    },
    {
      "inputs": [
        {
          "internalType": "address",
          "name": "recipient",
          "type": "address"
        },
        {
          "internalType": "string",
          "name": "tokenURI",
          "type": "string"
        },
        {
          "internalType": "uint256",
          "name": "amount",
          "type": "uint256"
        }
      ],
      "name": "mint",
      "outputs": [],
      "stateMutability": "nonpayable",
      "type": "function"
    }
  ],
  "bytecode": "0x60806040523480156200001157600080fd5b506040805160208101909152600081526200002c8162000033565b506200012e565b8051620000489060029060208401906200004c565b5050565b8280546200005a90620000f2565b90600052602060002090601f0160209004810192826200007e5760008555620000c9565b82601f106200009957805160ff1916838001178555620000c9565b82800160010185558215620000c9579182015b82811115620000c9578251825591602001919060010190620000ac565b50620000d7929150620000db565b5090565b5b80821115620000d75760008155600101620000dc565b600181811c908216806200010757607f821691505b6020821081036200012857634e487b7160e01b600052602260045260246000fd5b50919050565b611716806200013e6000396000f3fe608060405234801561001057600080fd5b506004361061009d5760003560e01c8063a22cb46511610066578063a22cb46514610140578063b28f6df614610153578063ba7aef4314610166578063e985e9c514610179578063f242432a146101b557600080fd5b8062fdd58e146100a257806301ffc9a7146100c85780630e89341c146100eb5780632eb2c2d61461010b5780634e1273f414610120575b600080fd5b6100b56100b0366004610ea6565b6101c8565b6040519081526020015b60405180910390f35b6100db6100d6366004610ee9565b61025f565b60405190151581526020016100bf565b6100fe6100f9366004610f0d565b6102b1565b6040516100bf9190610f73565b61011e6101193660046110dc565b610345565b005b61013361012e366004611186565b6103dc565b6040516100bf919061128c565b61011e61014e36600461129f565b610506565b6100fe610161366004610f0d565b610515565b61011e6101743660046112db565b6105af565b6100db610187366004611346565b6001600160a01b03918216600090815260016020908152604080832093909416825291909152205460ff1690565b61011e6101c3366004611379565b61060e565b60006001600160a01b0383166102395760405162461bcd60e51b815260206004820152602b60248201527f455243313135353a2062616c616e636520717565727920666f7220746865207a60448201526a65726f206164647265737360a81b60648201526084015b60405180910390fd5b506000908152602081815260408083206001600160a01b03949094168352929052205490565b60006001600160e01b03198216636cdb3d1360e11b148061029057506001600160e01b031982166303a24d0760e21b145b806102ab57506301ffc9a760e01b6001600160e01b03198316145b92915050565b6060600280546102c0906113de565b80601f01602080910402602001604051908101604052809291908181526020018280546102ec906113de565b80156103395780601f1061030e57610100808354040283529160200191610339565b820191906000526020600020905b81548152906001019060200180831161031c57829003601f168201915b50505050509050919050565b6001600160a01b03851633148061036157506103618533610187565b6103c85760405162461bcd60e51b815260206004820152603260248201527f455243313135353a207472616e736665722063616c6c6572206973206e6f74206044820152711bdddb995c881b9bdc88185c1c1c9bdd995960721b6064820152608401610230565b6103d58585858585610695565b5050505050565b606081518351146104415760405162461bcd60e51b815260206004820152602960248201527f455243313135353a206163636f756e747320616e6420696473206c656e677468604482015268040dad2e6dac2e8c6d60bb1b6064820152608401610230565b6000835167ffffffffffffffff81111561045d5761045d610f86565b604051908082528060200260200182016040528015610486578160200160208202803683370190505b50905060005b84518110156104fe576104d18582815181106104aa576104aa611418565b60200260200101518583815181106104c4576104c4611418565b60200260200101516101c8565b8282815181106104e3576104e3611418565b60209081029190910101526104f781611444565b905061048c565b509392505050565b610511338383610872565b5050565b6004602052600090815260409020805461052e906113de565b80601f016020809104026020016040519081016040528092919081815260200182805461055a906113de565b80156105a75780601f1061057c576101008083540402835291602001916105a7565b820191906000526020600020905b81548152906001019060200180831161058a57829003601f168201915b505050505081565b6105bd600380546001019055565b60006105c860035490565b600081815260046020908152604090912085519293506105ec929091860190610df1565b5061060884828460405180602001604052806000815250610952565b50505050565b6001600160a01b03851633148061062a575061062a8533610187565b6106885760405162461bcd60e51b815260206004820152602960248201527f455243313135353a2063616c6c6572206973206e6f74206f776e6572206e6f7260448201526808185c1c1c9bdd995960ba1b6064820152608401610230565b6103d58585858585610a66565b81518351146106f75760405162461bcd60e51b815260206004820152602860248201527f455243313135353a2069647320616e6420616d6f756e7473206c656e677468206044820152670dad2e6dac2e8c6d60c31b6064820152608401610230565b6001600160a01b03841661071d5760405162461bcd60e51b81526004016102309061145d565b3360005b845181101561080457600085828151811061073e5761073e611418565b60200260200101519050600085838151811061075c5761075c611418565b602090810291909101810151600084815280835260408082206001600160a01b038e1683529093529190912054909150818110156107ac5760405162461bcd60e51b8152600401610230906114a2565b6000838152602081815260408083206001600160a01b038e8116855292528083208585039055908b168252812080548492906107e99084906114ec565b92505081905550505050806107fd90611444565b9050610721565b50846001600160a01b0316866001600160a01b0316826001600160a01b03167f4a39dc06d4c0dbc64b70af90fd698a233a518aa5d07e595d983b8c0526c8f7fb8787604051610854929190611504565b60405180910390a461086a818787878787610b90565b505050505050565b816001600160a01b0316836001600160a01b0316036108e55760405162461bcd60e51b815260206004820152602960248201527f455243313135353a2073657474696e6720617070726f76616c20737461747573604482015268103337b91039b2b63360b91b6064820152608401610230565b6001600160a01b03838116600081815260016020908152604080832094871680845294825291829020805460ff191686151590811790915591519182527f17307eab39ab6107e8899845ad3d59bd9653f200f220920489ca2b5937696c31910160405180910390a3505050565b6001600160a01b0384166109b25760405162461bcd60e51b815260206004820152602160248201527f455243313135353a206d696e7420746f20746865207a65726f206164647265736044820152607360f81b6064820152608401610230565b3360006109be85610ceb565b905060006109cb85610ceb565b90506000868152602081815260408083206001600160a01b038b168452909152812080548792906109fd9084906114ec565b909155505060408051878152602081018790526001600160a01b03808a1692600092918716917fc3d58168c5ae7397731d063d5bbf3d657854427343f4c083240f7aacaa2d0f62910160405180910390a4610a5d83600089898989610d36565b50505050505050565b6001600160a01b038416610a8c5760405162461bcd60e51b81526004016102309061145d565b336000610a9885610ceb565b90506000610aa585610ceb565b90506000868152602081815260408083206001600160a01b038c16845290915290205485811015610ae85760405162461bcd60e51b8152600401610230906114a2565b6000878152602081815260408083206001600160a01b038d8116855292528083208985039055908a16825281208054889290610b259084906114ec565b909155505060408051888152602081018890526001600160a01b03808b16928c821692918816917fc3d58168c5ae7397731d063d5bbf3d657854427343f4c083240f7aacaa2d0f62910160405180910390a4610b85848a8a8a8a8a610d36565b505050505050505050565b6001600160a01b0384163b1561086a5760405163bc197c8160e01b81526001600160a01b0385169063bc197c8190610bd49089908990889088908890600401611532565b6020604051808303816000875af1925050508015610c0f575060408051601f3d908101601f19168201909252610c0c91810190611590565b60015b610cbb57610c1b6115ad565b806308c379a003610c545750610c2f6115c9565b80610c3a5750610c56565b8060405162461bcd60e51b81526004016102309190610f73565b505b60405162461bcd60e51b815260206004820152603460248201527f455243313135353a207472616e7366657220746f206e6f6e20455243313135356044820152732932b1b2b4bb32b91034b6b83632b6b2b73a32b960611b6064820152608401610230565b6001600160e01b0319811663bc197c8160e01b14610a5d5760405162461bcd60e51b815260040161023090611653565b60408051600180825281830190925260609160009190602080830190803683370190505090508281600081518110610d2557610d25611418565b602090810291909101015292915050565b6001600160a01b0384163b1561086a5760405163f23a6e6160e01b81526001600160a01b0385169063f23a6e6190610d7a908990899088908890889060040161169b565b6020604051808303816000875af1925050508015610db5575060408051601f3d908101601f19168201909252610db291810190611590565b60015b610dc157610c1b6115ad565b6001600160e01b0319811663f23a6e6160e01b14610a5d5760405162461bcd60e51b815260040161023090611653565b828054610dfd906113de565b90600052602060002090601f016020900481019282610e1f5760008555610e65565b82601f10610e3857805160ff1916838001178555610e65565b82800160010185558215610e65579182015b82811115610e65578251825591602001919060010190610e4a565b50610e71929150610e75565b5090565b5b80821115610e715760008155600101610e76565b80356001600160a01b0381168114610ea157600080fd5b919050565b60008060408385031215610eb957600080fd5b610ec283610e8a565b946020939093013593505050565b6001600160e01b031981168114610ee657600080fd5b50565b600060208284031215610efb57600080fd5b8135610f0681610ed0565b9392505050565b600060208284031215610f1f57600080fd5b5035919050565b6000815180845260005b81811015610f4c57602081850181015186830182015201610f30565b81811115610f5e576000602083870101525b50601f01601f19169290920160200192915050565b602081526000610f066020830184610f26565b634e487b7160e01b600052604160045260246000fd5b601f8201601f1916810167ffffffffffffffff81118282101715610fc257610fc2610f86565b6040525050565b600067ffffffffffffffff821115610fe357610fe3610f86565b5060051b60200190565b600082601f830112610ffe57600080fd5b8135602061100b82610fc9565b6040516110188282610f9c565b83815260059390931b850182019282810191508684111561103857600080fd5b8286015b84811015611053578035835291830191830161103c565b509695505050505050565b600067ffffffffffffffff83111561107857611078610f86565b60405161108f601f8501601f191660200182610f9c565b8091508381528484840111156110a457600080fd5b83836020830137600060208583010152509392505050565b600082601f8301126110cd57600080fd5b610f068383356020850161105e565b600080600080600060a086880312156110f457600080fd5b6110fd86610e8a565b945061110b60208701610e8a565b9350604086013567ffffffffffffffff8082111561112857600080fd5b61113489838a01610fed565b9450606088013591508082111561114a57600080fd5b61115689838a01610fed565b9350608088013591508082111561116c57600080fd5b50611179888289016110bc565b9150509295509295909350565b6000806040838503121561119957600080fd5b823567ffffffffffffffff808211156111b157600080fd5b818501915085601f8301126111c557600080fd5b813560206111d282610fc9565b6040516111df8282610f9c565b83815260059390931b85018201928281019150898411156111ff57600080fd5b948201945b838610156112245761121586610e8a565b82529482019490820190611204565b9650508601359250508082111561123a57600080fd5b5061124785828601610fed565b9150509250929050565b600081518084526020808501945080840160005b8381101561128157815187529582019590820190600101611265565b509495945050505050565b602081526000610f066020830184611251565b600080604083850312156112b257600080fd5b6112bb83610e8a565b9150602083013580151581146112d057600080fd5b809150509250929050565b6000806000606084860312156112f057600080fd5b6112f984610e8a565b9250602084013567ffffffffffffffff81111561131557600080fd5b8401601f8101861361132657600080fd5b6113358682356020840161105e565b925050604084013590509250925092565b6000806040838503121561135957600080fd5b61136283610e8a565b915061137060208401610e8a565b90509250929050565b600080600080600060a0868803121561139157600080fd5b61139a86610e8a565b94506113a860208701610e8a565b93506040860135925060608601359150608086013567ffffffffffffffff8111156113d257600080fd5b611179888289016110bc565b600181811c908216806113f257607f821691505b60208210810361141257634e487b7160e01b600052602260045260246000fd5b50919050565b634e487b7160e01b600052603260045260246000fd5b634e487b7160e01b600052601160045260246000fd5b6000600182016114565761145661142e565b5060010190565b60208082526025908201527f455243313135353a207472616e7366657220746f20746865207a65726f206164604082015264647265737360d81b606082015260800190565b6020808252602a908201527f455243313135353a20696e73756666696369656e742062616c616e636520666f60408201526939103a3930b739b332b960b11b606082015260800190565b600082198211156114ff576114ff61142e565b500190565b6040815260006115176040830185611251565b82810360208401526115298185611251565b95945050505050565b6001600160a01b0386811682528516602082015260a06040820181905260009061155e90830186611251565b82810360608401526115708186611251565b905082810360808401526115848185610f26565b98975050505050505050565b6000602082840312156115a257600080fd5b8151610f0681610ed0565b600060033d11156115c65760046000803e5060005160e01c5b90565b600060443d10156115d75790565b6040516003193d81016004833e81513d67ffffffffffffffff816024840111818411171561160757505050505090565b828501915081518181111561161f5750505050505090565b843d87010160208285010111156116395750505050505090565b61164860208286010187610f9c565b509095945050505050565b60208082526028908201527f455243313135353a204552433131353552656365697665722072656a656374656040820152676420746f6b656e7360c01b606082015260800190565b6001600160a01b03868116825285166020820152604081018490526060810183905260a0608082018190526000906116d590830184610f26565b97965050505050505056fea26469706673582212203e86f0c3f08facbe1d4cd3d29628a3a7387bd4d56ff113084687176a66b8d92564736f6c634300080e0033",
  "immutableReferences": {},
  "source": "// SPDX-License-Identifier: MIT\n\npragma solidity ^0.8.0;\n\nimport \"@openzeppelin/contracts/utils/Counters.sol\";\nimport \"@openzeppelin/contracts/token/ERC721/extensions/ERC721URIStorage.sol\";\nimport \"@openzeppelin/contracts/security/ReentrancyGuard.sol\";\nimport \"@openzeppelin/contracts/token/ERC721/ERC721.sol\";\nimport \"@openzeppelin/contracts/token/ERC1155/ERC1155.sol\";\n\ncontract PolyMintERC721 is ERC721URIStorage {\n    using Counters for Counters.Counter;\n    Counters.Counter private _tokenIds;\n\n    constructor(string memory name_, string memory symbol_)\n        ERC721(name_, symbol_)\n    {}\n\n    function mint(address recipient, string memory tokenURI)\n        public\n        returns (uint256)\n    {\n        _tokenIds.increment();\n\n        uint256 newItemId = _tokenIds.current();\n\n        _mint(recipient, newItemId);\n        _setTokenURI(newItemId, tokenURI);\n\n        return newItemId;\n    }\n}\n\ncontract PolyMintERC1155 is ERC1155 {\n    using Counters for Counters.Counter;\n    Counters.Counter private _tokenIds;\n\n    mapping(uint256 => string) public lookupmap;\n\n    constructor() ERC1155(\"\") {}\n\n    function mint(\n        address recipient,\n        string memory tokenURI,\n        uint256 amount\n    ) public {\n        _tokenIds.increment();\n\n        uint256 newItemId = _tokenIds.current();\n\n        lookupmap[newItemId] = tokenURI;\n        _mint(recipient, newItemId, amount, \"\");\n    }\n}\n\ncontract PolyMintFactory {\n    mapping(address => PolyMint) public contracts;\n    address[] public addresses;\n    struct PolyMint {\n        address contractAddress;\n        uint256 contractType;\n        string name;\n        string symbol;\n    }\n\n    function mint(\n        string memory name,\n        string memory symbol,\n        string memory tokenURI\n    ) public {\n        _mint721(name, symbol, tokenURI);\n    }\n\n    function mint(\n        string memory name,\n        string memory symbol,\n        string memory tokenURI,\n        uint256 amount\n    ) public {\n        _mint1155(name, symbol, tokenURI, amount);\n    }\n\n    function mint(\n        address contractAddress,\n        string memory tokenURI\n    ) public {\n        _mint721(contractAddress, tokenURI);\n    }\n\n    function mint(\n        address contractAddress,\n        string memory tokenURI,\n        uint256 amount\n    ) public {\n        _mint1155(contractAddress, tokenURI, amount);\n    }\n\n    function _mint721(\n        string memory name,\n        string memory symbol,\n        string memory tokenURI\n    ) internal {\n        PolyMintERC721 contract_ = new PolyMintERC721(name, symbol);\n        address erc721Address = address(contract_);\n        contract_.mint(msg.sender, tokenURI);\n        contracts[erc721Address] = PolyMint(erc721Address, 721, name, symbol);\n        addresses.push(erc721Address);\n    }\n\n    function _mint721(address contractAddress, string memory tokenURI)\n        internal\n    {\n        PolyMintERC721 erc721 = PolyMintERC721(contractAddress);\n        erc721.mint(msg.sender, tokenURI);\n    }\n\n    function _mint1155(\n        string memory name,\n        string memory symbol,\n        string memory tokenURI,\n        uint256 amount\n    ) internal {\n        PolyMintERC1155 contract_ = new PolyMintERC1155();\n        address erc1155Address = address(contract_);\n        contract_.mint(msg.sender, tokenURI, amount);\n        contracts[erc1155Address] = PolyMint(\n            erc1155Address,\n            1155,\n            name,\n            symbol\n        );\n        addresses.push(erc1155Address);\n    }\n\n    function _mint1155(\n        address contractAddress,\n        string memory tokenURI,\n        uint256 amount\n    ) internal {\n        PolyMintERC1155 erc1155 = PolyMintERC1155(contractAddress);\n        erc1155.mint(msg.sender, tokenURI, amount);\n    }\n\n    function getContract(address addr)\n        public\n        view\n        returns (\n            string memory,\n            string memory,\n            uint256\n        )\n    {\n        return (\n            contracts[addr].name,\n            contracts[addr].symbol,\n            contracts[addr].contractType\n        );\n    }\n}\n",
  "sourcePath": "/Users/maadhav/Documents/web3Projects/poly-mint/contracts/PolyMintFactory.sol",
  "compiler": {
    "name": "solc",
    "version": "0.8.14+commit.80d49f37.Emscripten.clang"
  },
  "schemaVersion": "3.4.2",
  "updatedAt": "2022-06-15T14:51:11.970Z",
  "devdoc": {
    "kind": "dev",
    "methods": {
      "balanceOf(address,uint256)": {
        "details": "See {IERC1155-balanceOf}. Requirements: - `account` cannot be the zero address."
      },
      "balanceOfBatch(address[],uint256[])": {
        "details": "See {IERC1155-balanceOfBatch}. Requirements: - `accounts` and `ids` must have the same length."
      },
      "isApprovedForAll(address,address)": {
        "details": "See {IERC1155-isApprovedForAll}."
      },
      "safeBatchTransferFrom(address,address,uint256[],uint256[],bytes)": {
        "details": "See {IERC1155-safeBatchTransferFrom}."
      },
      "safeTransferFrom(address,address,uint256,uint256,bytes)": {
        "details": "See {IERC1155-safeTransferFrom}."
      },
      "setApprovalForAll(address,bool)": {
        "details": "See {IERC1155-setApprovalForAll}."
      },
      "supportsInterface(bytes4)": {
        "details": "See {IERC165-supportsInterface}."
      },
      "uri(uint256)": {
        "details": "See {IERC1155MetadataURI-uri}. This implementation returns the same URI for *all* token types. It relies on the token type ID substitution mechanism https://eips.ethereum.org/EIPS/eip-1155#metadata[defined in the EIP]. Clients calling this function must replace the `\\{id\\}` substring with the actual token type ID."
      }
    },
    "version": 1
  },
  "userdoc": {
    "kind": "user",
    "methods": {},
    "version": 1
  }
}